:10001E00E4FB7D017F601201BA7590FF120167E467
:10002E00F5907FE87E0312012D7590FF7FE87E0329
:10003E0012012D7FFF7E3F1201A9E4F5907FE87E2D
:10004E000312012D7590FF7FE87E0312012D7FFFB5
:10005E007EBF1201A9E4F5907FE87E0312012D7593
:10006E0090FF7FE87E0312012D7FFF7E1F1201A9F4
:10007E00E4F5907FE87E0312012D7590FF7FE87EF8
:10008E000312012D74FFFFFE1201A9E4F5907FE823
:10009E007E0312012D7590FF7FE87E0312012D7FE6
:0D00AE00D07E0712012D7F3212014C80FE22
:10014C00C28E53A8F75389DF43892053A6BF43A619
:0B015C00408F8B8F8D43A888D28E222D
:03001B000200BB25
:1000BB00C0E0C0F0C083C082C0D075D000C000C00B
:0D00CB0001C002C003C004C005C006C0078C
:1000D800120003EF7806C333CE33CED8F9F5098E74
:1000E80008D394C0E508947F50067FE07E5F8017B0
:1000F800AE08AF09E4FCFD7BC07AFFF9F8C3120132
:0A0108008240077FE07EDF1201A9AC
:10011200D007D006D005D004D003D002D001D00041
:0B012200D0D0D082D083D0F0D0E032EB
:10016700E4F5937594FFF595F596F5B1F5B2D28060
:0B017700C285C286C2877F010201988A
:10019800C283BF0104D2848005EF7002C284D28377
:0101A8002234
:1001A900C282C281EFF5A0EEF5B0C280D282D280C0
:0101B9002223
:10012D00D3EF9400EE94004015E4FDFC0DBD0001ED
:0E013D000CBC09F8BD60F5EF1F70E51E80E2F6
:01014B002291
:1001BA00ED4291EDF4529275C500EF44804B42C571
:0101CA002212
:1000030043C50853C5EFAFC6EF75F004A4ADBE7C7E
:08001300002DFFEC35F0FE2288
:030000000201CB2F
:0C01CB00787FE4F6D8FD75810902001E63
:10018200EB9FF5F0EA9E42F0E99D42F0EC6480C8F4
:0601920064809845F02294
:00000001FF
